{
  "_format": "hh-sol-artifact-1",
  "contractName": "CodeChain",
  "sourceName": "contracts/CodeChain.sol",
  "abi": [
    {
      "anonymous": false,
      "inputs": [
        {
          "indexed": false,
          "internalType": "string",
          "name": "repoName",
          "type": "string"
        },
        {
          "indexed": false,
          "internalType": "string",
          "name": "branchName",
          "type": "string"
        }
      ],
      "name": "BranchCreated",
      "type": "event"
    },
    {
      "anonymous": false,
      "inputs": [
        {
          "indexed": false,
          "internalType": "string",
          "name": "repoName",
          "type": "string"
        },
        {
          "indexed": false,
          "internalType": "string",
          "name": "branchName",
          "type": "string"
        },
        {
          "indexed": false,
          "internalType": "uint256",
          "name": "commitId",
          "type": "uint256"
        },
        {
          "indexed": false,
          "internalType": "string",
          "name": "message",
          "type": "string"
        },
        {
          "indexed": false,
          "internalType": "string",
          "name": "ipfsHash",
          "type": "string"
        }
      ],
      "name": "CommitMade",
      "type": "event"
    },
    {
      "anonymous": false,
      "inputs": [
        {
          "indexed": false,
          "internalType": "string",
          "name": "repoName",
          "type": "string"
        }
      ],
      "name": "RepositoryCreated",
      "type": "event"
    },
    {
      "inputs": [
        {
          "internalType": "string",
          "name": "repoName",
          "type": "string"
        },
        {
          "internalType": "string",
          "name": "branchName",
          "type": "string"
        },
        {
          "internalType": "string",
          "name": "message",
          "type": "string"
        },
        {
          "internalType": "string",
          "name": "ipfsHash",
          "type": "string"
        }
      ],
      "name": "commit",
      "outputs": [],
      "stateMutability": "nonpayable",
      "type": "function"
    },
    {
      "inputs": [
        {
          "internalType": "string",
          "name": "repoName",
          "type": "string"
        },
        {
          "internalType": "string",
          "name": "branchName",
          "type": "string"
        }
      ],
      "name": "createBranch",
      "outputs": [],
      "stateMutability": "nonpayable",
      "type": "function"
    },
    {
      "inputs": [
        {
          "internalType": "string",
          "name": "repoName",
          "type": "string"
        }
      ],
      "name": "createRepository",
      "outputs": [],
      "stateMutability": "nonpayable",
      "type": "function"
    },
    {
      "inputs": [
        {
          "internalType": "string",
          "name": "repoName",
          "type": "string"
        }
      ],
      "name": "getBranches",
      "outputs": [
        {
          "internalType": "string[]",
          "name": "",
          "type": "string[]"
        }
      ],
      "stateMutability": "view",
      "type": "function"
    },
    {
      "inputs": [
        {
          "internalType": "string",
          "name": "repoName",
          "type": "string"
        },
        {
          "internalType": "uint256",
          "name": "commitId",
          "type": "uint256"
        }
      ],
      "name": "getCommit",
      "outputs": [
        {
          "internalType": "string",
          "name": "message",
          "type": "string"
        },
        {
          "internalType": "string",
          "name": "ipfsHash",
          "type": "string"
        },
        {
          "internalType": "uint256",
          "name": "parentId",
          "type": "uint256"
        }
      ],
      "stateMutability": "view",
      "type": "function"
    },
    {
      "inputs": [
        {
          "internalType": "string",
          "name": "repoName",
          "type": "string"
        },
        {
          "internalType": "string",
          "name": "branchName",
          "type": "string"
        }
      ],
      "name": "getLatestCommitId",
      "outputs": [
        {
          "internalType": "uint256",
          "name": "",
          "type": "uint256"
        }
      ],
      "stateMutability": "view",
      "type": "function"
    },
    {
      "inputs": [
        {
          "internalType": "string",
          "name": "repoName",
          "type": "string"
        },
        {
          "internalType": "string",
          "name": "branchName",
          "type": "string"
        }
      ],
      "name": "getLatestIpfsHash",
      "outputs": [
        {
          "internalType": "string",
          "name": "",
          "type": "string"
        }
      ],
      "stateMutability": "view",
      "type": "function"
    },
    {
      "inputs": [
        {
          "internalType": "uint256",
          "name": "",
          "type": "uint256"
        }
      ],
      "name": "repoNames",
      "outputs": [
        {
          "internalType": "string",
          "name": "",
          "type": "string"
        }
      ],
      "stateMutability": "view",
      "type": "function"
    }
  ],
  "bytecode": "0x608060405234801561001057600080fd5b50611c12806100206000396000f3fe608060405234801561001057600080fd5b50600436106100885760003560e01c806390f150651161005b57806390f1506514610125578063af0f4b3d14610157578063ee94cf6d14610187578063fffbd556146101a357610088565b80631ea812851461008d5780633a2f6c80146100a9578063872a1c20146100d957806388c0db0e14610109575b600080fd5b6100a760048036038101906100a291906110fc565b6101d3565b005b6100c360048036038101906100be9190611174565b610417565b6040516100d091906112fe565b60405180910390f35b6100f360048036038101906100ee91906110fc565b610582565b604051610100919061136a565b60405180910390f35b610123600480360381019061011e919061138c565b610792565b005b61013f600480360381019061013a9190611499565b6109b6565b60405161014e93929190611504565b60405180910390f35b610171600480360381019061016c91906110fc565b610b94565b60405161017e9190611549565b60405180910390f35b6101a1600480360381019061019c9190611174565b610ce2565b005b6101bd60048036038101906101b89190611564565b610ef6565b6040516101ca919061136a565b60405180910390f35b81600080826040516101e591906115cd565b9081526020016040518091039020600001805461020190611613565b905003610243576040517f08c379a000000000000000000000000000000000000000000000000000000000815260040161023a90611690565b60405180910390fd5b6000808460405161025491906115cd565b90815260200160405180910390206003018360405161027391906115cd565b9081526020016040518091039020600001805461028f90611613565b9050146102d1576040517f08c379a00000000000000000000000000000000000000000000000000000000081526004016102c8906116fc565b60405180910390fd5b816000846040516102e291906115cd565b90815260200160405180910390206003018360405161030191906115cd565b9081526020016040518091039020600001908161031e91906118c8565b5060008360405161032f91906115cd565b90815260200160405180910390206001015460008460405161035191906115cd565b90815260200160405180910390206003018360405161037091906115cd565b90815260200160405180910390206001018190555060008360405161039591906115cd565b9081526020016040518091039020600401829080600181540180825580915050600190039060005260206000200160009091909190915090816103d891906118c8565b507fddff5c1462711c83745cd634dd16728e6a90c459ba93a26a261476d0bbf623a9838360405161040a92919061199a565b60405180910390a1505050565b6060816000808260405161042b91906115cd565b9081526020016040518091039020600001805461044790611613565b905003610489576040517f08c379a000000000000000000000000000000000000000000000000000000000815260040161048090611690565b60405180910390fd5b60008360405161049991906115cd565b9081526020016040518091039020600401805480602002602001604051908101604052809291908181526020016000905b828210156105765783829060005260206000200180546104e990611613565b80601f016020809104026020016040519081016040528092919081815260200182805461051590611613565b80156105625780601f1061053757610100808354040283529160200191610562565b820191906000526020600020905b81548152906001019060200180831161054557829003601f168201915b5050505050815260200190600101906104ca565b50505050915050919050565b6060826000808260405161059691906115cd565b908152602001604051809103902060000180546105b290611613565b9050036105f4576040517f08c379a00000000000000000000000000000000000000000000000000000000081526004016105eb90611690565b60405180910390fd5b83836000808360405161060791906115cd565b90815260200160405180910390206003018260405161062691906115cd565b9081526020016040518091039020600001805461064290611613565b905003610684576040517f08c379a000000000000000000000000000000000000000000000000000000000815260040161067b90611a1d565b60405180910390fd5b6000808760405161069591906115cd565b9081526020016040518091039020600301866040516106b491906115cd565b90815260200160405180910390206001015490506000876040516106d891906115cd565b90815260200160405180910390206002016000828152602001908152602001600020600101805461070890611613565b80601f016020809104026020016040519081016040528092919081815260200182805461073490611613565b80156107815780601f1061075657610100808354040283529160200191610781565b820191906000526020600020905b81548152906001019060200180831161076457829003601f168201915b505050505094505050505092915050565b83600080826040516107a491906115cd565b908152602001604051809103902060000180546107c090611613565b905003610802576040517f08c379a00000000000000000000000000000000000000000000000000000000081526004016107f990611690565b60405180910390fd5b84846000808360405161081591906115cd565b90815260200160405180910390206003018260405161083491906115cd565b9081526020016040518091039020600001805461085090611613565b905003610892576040517f08c379a000000000000000000000000000000000000000000000000000000000815260040161088990611a1d565b60405180910390fd5b600080886040516108a391906115cd565b90815260200160405180910390209050600081600301886040516108c791906115cd565b908152602001604051809103902090506000600183600101546108ea9190611a6c565b905060405180606001604052808981526020018881526020018360010154815250836002016000838152602001908152602001600020600082015181600001908161093591906118c8565b50602082015181600101908161094b91906118c8565b50604082015181600201559050508082600101819055508083600101819055507fbbca4a611ed4e57a2b2c7ffba489851c10e8a1781e2876bd4a5b0799b435ef898a8a838b8b6040516109a2959493929190611aa0565b60405180910390a150505050505050505050565b606080600084600080826040516109cd91906115cd565b908152602001604051809103902060000180546109e990611613565b905003610a2b576040517f08c379a0000000000000000000000000000000000000000000000000000000008152600401610a2290611690565b60405180910390fd5b60008087604051610a3c91906115cd565b90815260200160405180910390206002016000878152602001908152602001600020905080600001816001018260020154828054610a7990611613565b80601f0160208091040260200160405190810160405280929190818152602001828054610aa590611613565b8015610af25780601f10610ac757610100808354040283529160200191610af2565b820191906000526020600020905b815481529060010190602001808311610ad557829003601f168201915b50505050509250818054610b0590611613565b80601f0160208091040260200160405190810160405280929190818152602001828054610b3190611613565b8015610b7e5780601f10610b5357610100808354040283529160200191610b7e565b820191906000526020600020905b815481529060010190602001808311610b6157829003601f168201915b5050505050915094509450945050509250925092565b60008260008082604051610ba891906115cd565b90815260200160405180910390206000018054610bc490611613565b905003610c06576040517f08c379a0000000000000000000000000000000000000000000000000000000008152600401610bfd90611690565b60405180910390fd5b838360008083604051610c1991906115cd565b908152602001604051809103902060030182604051610c3891906115cd565b90815260200160405180910390206000018054610c5490611613565b905003610c96576040517f08c379a0000000000000000000000000000000000000000000000000000000008152600401610c8d90611a1d565b60405180910390fd5b600086604051610ca691906115cd565b908152602001604051809103902060030185604051610cc591906115cd565b908152602001604051809103902060010154935050505092915050565b60008082604051610cf391906115cd565b90815260200160405180910390206000018054610d0f90611613565b905014610d51576040517f08c379a0000000000000000000000000000000000000000000000000000000008152600401610d4890611b5b565b60405180910390fd5b80600082604051610d6291906115cd565b90815260200160405180910390206000019081610d7f91906118c8565b506040518060400160405280600481526020017f6d61696e00000000000000000000000000000000000000000000000000000000815250600082604051610dc691906115cd565b9081526020016040518091039020600301604051610de390611bc7565b90815260200160405180910390206000019081610e0091906118c8565b50600081604051610e1191906115cd565b908152602001604051809103902060040180600181540180825580915050600190039060005260206000200160006040518060400160405280600481526020017f6d61696e0000000000000000000000000000000000000000000000000000000081525090919091509081610e8691906118c8565b50600181908060018154018082558091505060019003906000526020600020016000909190919091509081610ebb91906118c8565b507fa89e5bc17a2a70f3fe4f74961898a18fd1a50e5f2c82e000e8426c2fd00aef2981604051610eeb919061136a565b60405180910390a150565b60018181548110610f0657600080fd5b906000526020600020016000915090508054610f2190611613565b80601f0160208091040260200160405190810160405280929190818152602001828054610f4d90611613565b8015610f9a5780601f10610f6f57610100808354040283529160200191610f9a565b820191906000526020600020905b815481529060010190602001808311610f7d57829003601f168201915b505050505081565b6000604051905090565b600080fd5b600080fd5b600080fd5b600080fd5b6000601f19601f8301169050919050565b7f4e487b7100000000000000000000000000000000000000000000000000000000600052604160045260246000fd5b61100982610fc0565b810181811067ffffffffffffffff8211171561102857611027610fd1565b5b80604052505050565b600061103b610fa2565b90506110478282611000565b919050565b600067ffffffffffffffff82111561106757611066610fd1565b5b61107082610fc0565b9050602081019050919050565b82818337600083830152505050565b600061109f61109a8461104c565b611031565b9050828152602081018484840111156110bb576110ba610fbb565b5b6110c684828561107d565b509392505050565b600082601f8301126110e3576110e2610fb6565b5b81356110f384826020860161108c565b91505092915050565b6000806040838503121561111357611112610fac565b5b600083013567ffffffffffffffff81111561113157611130610fb1565b5b61113d858286016110ce565b925050602083013567ffffffffffffffff81111561115e5761115d610fb1565b5b61116a858286016110ce565b9150509250929050565b60006020828403121561118a57611189610fac565b5b600082013567ffffffffffffffff8111156111a8576111a7610fb1565b5b6111b4848285016110ce565b91505092915050565b600081519050919050565b600082825260208201905092915050565b6000819050602082019050919050565b600081519050919050565b600082825260208201905092915050565b60005b83811015611223578082015181840152602081019050611208565b60008484015250505050565b600061123a826111e9565b61124481856111f4565b9350611254818560208601611205565b61125d81610fc0565b840191505092915050565b6000611274838361122f565b905092915050565b6000602082019050919050565b6000611294826111bd565b61129e81856111c8565b9350836020820285016112b0856111d9565b8060005b858110156112ec57848403895281516112cd8582611268565b94506112d88361127c565b925060208a019950506001810190506112b4565b50829750879550505050505092915050565b600060208201905081810360008301526113188184611289565b905092915050565b600082825260208201905092915050565b600061133c826111e9565b6113468185611320565b9350611356818560208601611205565b61135f81610fc0565b840191505092915050565b600060208201905081810360008301526113848184611331565b905092915050565b600080600080608085870312156113a6576113a5610fac565b5b600085013567ffffffffffffffff8111156113c4576113c3610fb1565b5b6113d0878288016110ce565b945050602085013567ffffffffffffffff8111156113f1576113f0610fb1565b5b6113fd878288016110ce565b935050604085013567ffffffffffffffff81111561141e5761141d610fb1565b5b61142a878288016110ce565b925050606085013567ffffffffffffffff81111561144b5761144a610fb1565b5b611457878288016110ce565b91505092959194509250565b6000819050919050565b61147681611463565b811461148157600080fd5b50565b6000813590506114938161146d565b92915050565b600080604083850312156114b0576114af610fac565b5b600083013567ffffffffffffffff8111156114ce576114cd610fb1565b5b6114da858286016110ce565b92505060206114eb85828601611484565b9150509250929050565b6114fe81611463565b82525050565b6000606082019050818103600083015261151e8186611331565b905081810360208301526115328185611331565b905061154160408301846114f5565b949350505050565b600060208201905061155e60008301846114f5565b92915050565b60006020828403121561157a57611579610fac565b5b600061158884828501611484565b91505092915050565b600081905092915050565b60006115a7826111e9565b6115b18185611591565b93506115c1818560208601611205565b80840191505092915050565b60006115d9828461159c565b915081905092915050565b7f4e487b7100000000000000000000000000000000000000000000000000000000600052602260045260246000fd5b6000600282049050600182168061162b57607f821691505b60208210810361163e5761163d6115e4565b5b50919050565b7f5265706f7369746f727920646f6573206e6f7420657869737400000000000000600082015250565b600061167a601983611320565b915061168582611644565b602082019050919050565b600060208201905081810360008301526116a98161166d565b9050919050565b7f4272616e636820616c7265616479206578697374730000000000000000000000600082015250565b60006116e6601583611320565b91506116f1826116b0565b602082019050919050565b60006020820190508181036000830152611715816116d9565b9050919050565b60008190508160005260206000209050919050565b60006020601f8301049050919050565b600082821b905092915050565b60006008830261177e7fffffffffffffffffffffffffffffffffffffffffffffffffffffffffffffffff82611741565b6117888683611741565b95508019841693508086168417925050509392505050565b6000819050919050565b60006117c56117c06117bb84611463565b6117a0565b611463565b9050919050565b6000819050919050565b6117df836117aa565b6117f36117eb826117cc565b84845461174e565b825550505050565b600090565b6118086117fb565b6118138184846117d6565b505050565b5b818110156118375761182c600082611800565b600181019050611819565b5050565b601f82111561187c5761184d8161171c565b61185684611731565b81016020851015611865578190505b61187961187185611731565b830182611818565b50505b505050565b600082821c905092915050565b600061189f60001984600802611881565b1980831691505092915050565b60006118b8838361188e565b9150826002028217905092915050565b6118d1826111e9565b67ffffffffffffffff8111156118ea576118e9610fd1565b5b6118f48254611613565b6118ff82828561183b565b600060209050601f8311600181146119325760008415611920578287015190505b61192a85826118ac565b865550611992565b601f1984166119408661171c565b60005b8281101561196857848901518255600182019150602085019450602081019050611943565b868310156119855784890151611981601f89168261188e565b8355505b6001600288020188555050505b505050505050565b600060408201905081810360008301526119b48185611331565b905081810360208301526119c88184611331565b90509392505050565b7f4272616e636820646f6573206e6f742065786973740000000000000000000000600082015250565b6000611a07601583611320565b9150611a12826119d1565b602082019050919050565b60006020820190508181036000830152611a36816119fa565b9050919050565b7f4e487b7100000000000000000000000000000000000000000000000000000000600052601160045260246000fd5b6000611a7782611463565b9150611a8283611463565b9250828201905080821115611a9a57611a99611a3d565b5b92915050565b600060a0820190508181036000830152611aba8188611331565b90508181036020830152611ace8187611331565b9050611add60408301866114f5565b8181036060830152611aef8185611331565b90508181036080830152611b038184611331565b90509695505050505050565b7f5265706f7369746f727920616c72656164792065786973747300000000000000600082015250565b6000611b45601983611320565b9150611b5082611b0f565b602082019050919050565b60006020820190508181036000830152611b7481611b38565b9050919050565b7f6d61696e00000000000000000000000000000000000000000000000000000000600082015250565b6000611bb1600483611591565b9150611bbc82611b7b565b600482019050919050565b6000611bd282611ba4565b915081905091905056fea26469706673582212206bac9f776a5e233e2e807739f35cc00d1182732008bc9677e6090ccec95c7bb764736f6c63430008180033",
  "linkReferences": {},
  "deployedLinkReferences": {}
}