{
  "_format": "hh-sol-artifact-1",
  "contractName": "CodeChain",
  "sourceName": "contracts/CodeChain.sol",
  "abi": [
    {
      "inputs": [],
      "name": "getIPFSHash",
      "outputs": [
        {
          "internalType": "string",
          "name": "",
          "type": "string"
        }
      ],
      "stateMutability": "view",
      "type": "function"
    },
    {
      "inputs": [],
      "name": "getOwnerId",
      "outputs": [
        {
          "internalType": "address",
          "name": "",
          "type": "address"
        }
      ],
      "stateMutability": "view",
      "type": "function"
    },
    {
      "inputs": [],
      "name": "getProjectId",
      "outputs": [
        {
          "internalType": "uint256",
          "name": "",
          "type": "uint256"
        }
      ],
      "stateMutability": "view",
      "type": "function"
    },
    {
      "inputs": [],
      "name": "ownerId",
      "outputs": [
        {
          "internalType": "address",
          "name": "",
          "type": "address"
        }
      ],
      "stateMutability": "view",
      "type": "function"
    },
    {
      "inputs": [],
      "name": "projectId",
      "outputs": [
        {
          "internalType": "uint256",
          "name": "",
          "type": "uint256"
        }
      ],
      "stateMutability": "view",
      "type": "function"
    },
    {
      "inputs": [
        {
          "internalType": "string",
          "name": "_hash",
          "type": "string"
        }
      ],
      "name": "setIPFSHash",
      "outputs": [],
      "stateMutability": "nonpayable",
      "type": "function"
    },
    {
      "inputs": [
        {
          "internalType": "address",
          "name": "_ownerId",
          "type": "address"
        }
      ],
      "name": "setOwnerId",
      "outputs": [],
      "stateMutability": "nonpayable",
      "type": "function"
    },
    {
      "inputs": [
        {
          "internalType": "uint256",
          "name": "_projectId",
          "type": "uint256"
        }
      ],
      "name": "setProjectId",
      "outputs": [],
      "stateMutability": "nonpayable",
      "type": "function"
    }
  ],
  "bytecode": "0x608060405234801561001057600080fd5b50610d5a806100206000396000f3fe608060405234801561001057600080fd5b50600436106100885760003560e01c80633fafa1271161005b5780633fafa12714610105578063b2247abc14610123578063b8a76f541461013f578063ce9246dd1461015b57610088565b8063019c08f51461008d5780631270e10c146100ab5780631f5072f2146100c957806320b28ade146100e7575b600080fd5b610095610177565b6040516100a2919061054b565b60405180910390f35b6100b361019d565b6040516100c0919061057f565b60405180910390f35b6100d1610237565b6040516100de919061054b565b60405180910390f35b6100ef610261565b6040516100fc919061062a565b60405180910390f35b61010d610383565b60405161011a919061057f565b60405180910390f35b61013d6004803603810190610138919061068c565b610389565b005b610159600480360381019061015491906107ee565b6103cd565b005b61017560048036038101906101709190610863565b610470565b005b600260009054906101000a900473ffffffffffffffffffffffffffffffffffffffff1681565b6000600260009054906101000a900473ffffffffffffffffffffffffffffffffffffffff1673ffffffffffffffffffffffffffffffffffffffff163373ffffffffffffffffffffffffffffffffffffffff161461022f576040517f08c379a000000000000000000000000000000000000000000000000000000000815260040161022690610902565b60405180910390fd5b600154905090565b6000600260009054906101000a900473ffffffffffffffffffffffffffffffffffffffff16905090565b6060600260009054906101000a900473ffffffffffffffffffffffffffffffffffffffff1673ffffffffffffffffffffffffffffffffffffffff163373ffffffffffffffffffffffffffffffffffffffff16146102f3576040517f08c379a00000000000000000000000000000000000000000000000000000000081526004016102ea90610994565b60405180910390fd5b60008054610300906109e3565b80601f016020809104026020016040519081016040528092919081815260200182805461032c906109e3565b80156103795780601f1061034e57610100808354040283529160200191610379565b820191906000526020600020905b81548152906001019060200180831161035c57829003601f168201915b5050505050905090565b60015481565b80600260006101000a81548173ffffffffffffffffffffffffffffffffffffffff021916908373ffffffffffffffffffffffffffffffffffffffff16021790555050565b600260009054906101000a900473ffffffffffffffffffffffffffffffffffffffff1673ffffffffffffffffffffffffffffffffffffffff163373ffffffffffffffffffffffffffffffffffffffff161461045d576040517f08c379a000000000000000000000000000000000000000000000000000000000815260040161045490610994565b60405180910390fd5b806000908161046c9190610bc0565b5050565b600260009054906101000a900473ffffffffffffffffffffffffffffffffffffffff1673ffffffffffffffffffffffffffffffffffffffff163373ffffffffffffffffffffffffffffffffffffffff1614610500576040517f08c379a00000000000000000000000000000000000000000000000000000000081526004016104f790610d04565b60405180910390fd5b8060018190555050565b600073ffffffffffffffffffffffffffffffffffffffff82169050919050565b60006105358261050a565b9050919050565b6105458161052a565b82525050565b6000602082019050610560600083018461053c565b92915050565b6000819050919050565b61057981610566565b82525050565b60006020820190506105946000830184610570565b92915050565b600081519050919050565b600082825260208201905092915050565b60005b838110156105d45780820151818401526020810190506105b9565b60008484015250505050565b6000601f19601f8301169050919050565b60006105fc8261059a565b61060681856105a5565b93506106168185602086016105b6565b61061f816105e0565b840191505092915050565b6000602082019050818103600083015261064481846105f1565b905092915050565b6000604051905090565b600080fd5b600080fd5b6106698161052a565b811461067457600080fd5b50565b60008135905061068681610660565b92915050565b6000602082840312156106a2576106a1610656565b5b60006106b084828501610677565b91505092915050565b600080fd5b600080fd5b7f4e487b7100000000000000000000000000000000000000000000000000000000600052604160045260246000fd5b6106fb826105e0565b810181811067ffffffffffffffff8211171561071a576107196106c3565b5b80604052505050565b600061072d61064c565b905061073982826106f2565b919050565b600067ffffffffffffffff821115610759576107586106c3565b5b610762826105e0565b9050602081019050919050565b82818337600083830152505050565b600061079161078c8461073e565b610723565b9050828152602081018484840111156107ad576107ac6106be565b5b6107b884828561076f565b509392505050565b600082601f8301126107d5576107d46106b9565b5b81356107e584826020860161077e565b91505092915050565b60006020828403121561080457610803610656565b5b600082013567ffffffffffffffff8111156108225761082161065b565b5b61082e848285016107c0565b91505092915050565b61084081610566565b811461084b57600080fd5b50565b60008135905061085d81610837565b92915050565b60006020828403121561087957610878610656565b5b60006108878482850161084e565b91505092915050565b7f4f6e6c7920746865206f776e65722063616e20676574207468652070726f6a6560008201527f6374206964000000000000000000000000000000000000000000000000000000602082015250565b60006108ec6025836105a5565b91506108f782610890565b604082019050919050565b6000602082019050818103600083015261091b816108df565b9050919050565b7f4f6e6c7920746865206f776e65722063616e207365742074686520495046532060008201527f6861736800000000000000000000000000000000000000000000000000000000602082015250565b600061097e6024836105a5565b915061098982610922565b604082019050919050565b600060208201905081810360008301526109ad81610971565b9050919050565b7f4e487b7100000000000000000000000000000000000000000000000000000000600052602260045260246000fd5b600060028204905060018216806109fb57607f821691505b602082108103610a0e57610a0d6109b4565b5b50919050565b60008190508160005260206000209050919050565b60006020601f8301049050919050565b600082821b905092915050565b600060088302610a767fffffffffffffffffffffffffffffffffffffffffffffffffffffffffffffffff82610a39565b610a808683610a39565b95508019841693508086168417925050509392505050565b6000819050919050565b6000610abd610ab8610ab384610566565b610a98565b610566565b9050919050565b6000819050919050565b610ad783610aa2565b610aeb610ae382610ac4565b848454610a46565b825550505050565b600090565b610b00610af3565b610b0b818484610ace565b505050565b5b81811015610b2f57610b24600082610af8565b600181019050610b11565b5050565b601f821115610b7457610b4581610a14565b610b4e84610a29565b81016020851015610b5d578190505b610b71610b6985610a29565b830182610b10565b50505b505050565b600082821c905092915050565b6000610b9760001984600802610b79565b1980831691505092915050565b6000610bb08383610b86565b9150826002028217905092915050565b610bc98261059a565b67ffffffffffffffff811115610be257610be16106c3565b5b610bec82546109e3565b610bf7828285610b33565b600060209050601f831160018114610c2a5760008415610c18578287015190505b610c228582610ba4565b865550610c8a565b601f198416610c3886610a14565b60005b82811015610c6057848901518255600182019150602085019450602081019050610c3b565b86831015610c7d5784890151610c79601f891682610b86565b8355505b6001600288020188555050505b505050505050565b7f4f6e6c7920746865206f776e65722063616e20736574207468652070726f6a6560008201527f6374206964000000000000000000000000000000000000000000000000000000602082015250565b6000610cee6025836105a5565b9150610cf982610c92565b604082019050919050565b60006020820190508181036000830152610d1d81610ce1565b905091905056fea2646970667358221220f25d3fe4c71a93dc53a9fc03c88bf864d0f5f9931d9de8d6d751cf2a5b540cce64736f6c63430008180033",
  "linkReferences": {},
  "deployedLinkReferences": {}
}